:100000000C9463000C948B000C948B000C947B0577
:100010000C947B050C947B050C948B000C948B004A
:100020000C948B000C948B000C948B000C94BA04F1
:100030000C948B000C948B000C948B000C948B0014
:100040000C9470040C948B000C943E040C941804D3
:100050000C948B000C948B000C948B000C948B00F4
:100060000C948B000C948B000000000024002700EF
:100070002A0000000008000201000003040700003D
:1000800000000000000000000000250028002B00F8
:1000900000000000230026002900040404040404D6
:1000A0000404020202020202030303030303010227
:1000B00004081020408001020408102001020408F6
:1000C0001020F505B80811241FBECFEFD8E0DEBF21
:1000D000CDBF11E0A0E0B1E0E2EEF2E102C0059098
:1000E0000D92A432B107D9F722E0A4E2B1E001C039
:1000F0001D92A935B207E1F710E0C2E6D0E004C0D6
:100100002197FE010E945909C136D107C9F70E9403
:10011000DA060C9464090C940000CF92DF92EF92FF
:10012000FF920F931F93CF93DF936C017A018B01A2
:10013000C0E0D0E0CE15DF0589F0D8016D918D01CA
:10014000D601ED91FC910190F081E02DC601099559
:10015000892B11F47E0102C02196ECCFC701DF91FB
:10016000CF911F910F91FF90EF90DF90CF90089566
:10017000FC01538D448D252F30E0842F90E0821BAD
:10018000930B541710F0CF96089501970895FC0132
:10019000918D828D981761F0828DDF01A80FB11DBE
:1001A0005D968C91928D9F5F9F73928F90E00895E2
:1001B0008FEF9FEF0895FC01918D828D981731F09C
:1001C000828DE80FF11D858D90E008958FEF9FEFF0
:1001D0000895FC01918D228D892F90E0805C9F4FC6
:1001E000821B91098F739927089582E791E00E94FD
:1001F000E90021E0892B09F420E0822F0895FC0119
:10020000848DDF01A80FB11DA35ABF4F2C91848D9F
:1002100090E001968F739927848FA689B7892C93D4
:10022000A089B1898C9180648C93938D848D98136F
:1002300006C00288F389E02D80818F7D8083089538
:10024000EF92FF920F931F93CF93DF93EC0181E026
:10025000888F9B8D8C8D981305C0E889F9898081E2
:1002600085FD24C0F62E0B8D10E00F5F1F4F0F731E
:100270001127E02E8C8DE8120CC00FB607FCFACFC8
:10028000E889F989808185FFF5CFCE010E94FF00C2
:10029000F1CF8B8DFE01E80FF11DE35AFF4FF08285
:1002A0000B8FEA89FB898081806207C0EE89FF8914
:1002B0006083E889F98980818064808381E090E0AF
:1002C000DF91CF911F910F91FF90EF900895CF9301
:1002D000DF93EC01888D8823C9F0EA89FB8980814E
:1002E00085FD05C0A889B9898C9186FD0FC00FB620
:1002F00007FCF5CF808185FFF2CFA889B9898C9161
:1003000085FFEDCFCE010E94FF00E7CFDF91CF91B7
:10031000089580E090E0892B29F00E94F50081117A
:100320000C940000089590E0FC01EE58FF4F3491CA
:10033000FC01E255FF4F2491FC01E656FF4FE4918A
:10034000EE2309F43BC0332339F1333091F038F414
:100350003130A9F0323001F584B58F7D12C03730CD
:1003600091F03830A1F03430B9F4809180008F7D65
:1003700003C0809180008F77809380000DC084B58A
:100380008F7784BD09C08091B0008F7703C08091C2
:10039000B0008F7D8093B000F0E0EE0FFF1FEA57B2
:1003A000FF4FA591B4918FB7F894EC91611103C000
:1003B00020952E2301C02E2B2C938FBF0895CF9311
:1003C000DF9390E0FC01E255FF4F2491FC01E656DB
:1003D000FF4F8491882361F190E0880F991FFC0101
:1003E000E859FF4FC591D491FC01EA57FF4FA59101
:1003F000B491611109C09FB7F89488812095822338
:100400008883EC912E230BC0623061F49FB7F8947F
:100410003881822F809583238883EC912E2B2C9317
:100420009FBF06C08FB7F894E8812E2B28838FBF1B
:10043000DF91CF9108953FB7F89480916A01909130
:100440006B01A0916C01B0916D0126B5A89B05C010
:100450002F3F19F00196A11DB11D3FBFBA2FA92F43
:10046000982F8827820F911DA11DB11DBC01CD01C0
:1004700042E0660F771F881F991F4A95D1F70895AC
:100480008F929F92AF92BF92CF92DF92EF92FF92A4
:100490000E941B024B015C018AE0C82ED12CE12C8A
:1004A000F12C0E941B02DC01CB0188199909AA09D1
:1004B000BB09883E9340A105B10558F021E0C21A5E
:1004C000D108E108F10888EE880E83E0981EA11C8F
:1004D000B11CC114D104E104F10419F7FF90EF90AD
:1004E000DF90CF90BF90AF909F908F900895CF9264
:1004F000DF92EF92FF92CF93DF93EC01603282E0C4
:1005000078070CF03DC077FD06C0653B71052CF007
:1005100064EB70E002C060E070E0898128E830E0C0
:100520006901C81AD10887FDD394CC0CDD1CCC0C12
:10053000DD1C0D2C000CEE08FF088A8128E532E056
:10054000281B310987FD3395220F331F220F331FDC
:10055000C901330FAA0BBB0B9C01AD012C193D093E
:100560004E095F09DB010E94EC0824EB30E040E01B
:1005700050E00E94C208C20ED31EE41EF51EB60152
:1005800088818C3080F5998148E850E0491B5109F9
:1005900097FD5395440F551F440F551F641775075A
:1005A00084F09A8128E532E0291B310997FD3395C3
:1005B000220F331F220F331FAB01261737070CF40E
:1005C000A90142505109440F551F2FB7F89490E0EC
:1005D000FC01EE0FFF1F8E0F9F1FFC01E15FFD4F1F
:1005E000528341832FBFDF91CF91FF90EF90DF9037
:1005F000CF9008951F93CF93DF93EC01162F88813E
:100600008C3008F04EC061E0812F0E94DF018881AC
:10061000E82FF0E09F01220F331FE20FF31FE15F8D
:10062000FD4F1F739081907C192B108319821A82C1
:100630006CE00E9425099CE0899FB001112440E0F4
:1006400050E09A01260F371FF901EE0FFF1F2E0F02
:100650003F1FF901E15FFD4F908196FD16C04F5F8E
:100660005F4F4C30510569F781110FC01092800027
:1006700082E0809381001092850010928400B19AEC
:1006800080916F00826080936F00E881F0E0CF017D
:10069000880F991FE80FF91FE15FFD4F808180648B
:1006A00080838881DF91CF911F91089520917001FF
:1006B000309171012817390771F490916E01809182
:1006C0006F01981741F0E0916E01F0E0EC5DFE4F94
:1006D000808190E008958FEF9FEF089508951F9314
:1006E000CF93DF93DC015C962D913C915D972115B2
:1006F000310539F481E090E013969C938E93129724
:100700003DC05196ED91FC91529750969C91509717
:10071000892F80951FB75E964C915E9741FB772796
:1007200070F941FD6095F8944081772311F0492BD1
:1007300001C048234083E9012197F1F748E0508147
:1007400060FF02C0592B01C058235083E901219753
:10075000F1F76695415099F7772321F0908189232D
:10076000808303C08081982B90831FBF5C968D91FE
:100770009C915D970197F1F721E030E0C901DF918D
:10078000CF911F9108952091700130917101281728
:10079000390771F480916F0120916E0190E0805CC7
:1007A0009F4F821B910960E470E00E943109089517
:1007B00080E090E008952091700130917101281738
:1007C0003907B9F490916E0180916F01981789F003
:1007D000E0916E01F0E0EC5DFE4F808120916E01B2
:1007E00030E02F5F3F4F2F73332720936E0190E04F
:1007F00008958FEF9FEF0895E0917001F0917101DE
:10080000E817F90769F4A389B4899C9185898095D3
:1008100089238C93109271011092700181E00895E8
:1008200080E00895089580E090E008950E945F09B7
:100830001F920F920FB60F9211242F933F934F9355
:100840005F936F937F938F939F93AF93BF93EF9338
:10085000FF9382E791E00E94FF00FF91EF91BF912B
:10086000AF919F918F917F916F915F914F913F9148
:100870002F910F900FBE0F901F9018951F920F92FF
:100880000FB60F9211242F938F939F93EF93FF93A3
:10089000E0918201F09183018081E0918801F091E3
:1008A000890182FD12C0908180918B018F5F8F73CF
:1008B00020918C01821751F0E0918B01F0E0EE580D
:1008C000FE4F958F80938B0101C08081FF91EF9146
:1008D0009F918F912F910F900FBE0F901F901895A1
:1008E0001F920F920FB60F9211242F933F938F9365
:1008F0009F93AF93BF938091660190916701A09100
:100900006801B09169013091650123E0230F2D3713
:1009100020F40196A11DB11D05C026E8230F029603
:10092000A11DB11D2093650180936601909367011D
:10093000A0936801B093690180916A0190916B0165
:10094000A0916C01B0916D010196A11DB11D809324
:100950006A0190936B01A0936C01B0936D01BF91FC
:10096000AF919F918F913F912F910F900FBE0F905C
:100970001F9018951F920F920FB60F9211242F936C
:100980003F934F935F936F937F938F939F93AF9317
:10099000BF93EF93FF938091640187FF05C010928E
:1009A0008500109284001BC020916401022E000C6F
:1009B000330B8091330290E02817390784F480913B
:1009C0006401082E000C990BFC01EE0FFF1F8E0F27
:1009D0009F1FFC01E15FFD4F808186FD15C0809166
:1009E00064018F5F8093640120916401022E000CEA
:1009F000330B8091330290E028173907C4F48091BB
:100A000064018C3064F113C080916401082E000CE5
:100A1000990BFC01EE0FFF1F8E0F9F1FFC01E15F82
:100A2000FD4F808160E08F730E949301D8CF809149
:100A3000840090918500049680349C4918F480E4E9
:100A40009CE905C080918400909185000496909364
:100A50008900809388008FEF809364013BC02091D0
:100A600084003091850080916401082E000C990B60
:100A7000FC01EE0FFF1F8E0F9F1FFC01E15FFD4F7A
:100A800081819281820F931F9093890080938800C7
:100A900080916401082E000C990BFC01EE0FFF1FE2
:100AA0008E0F9F1FFC01E15FFD4F808186FF12C00A
:100AB00080916401082E000C990BFC01EE0FFF1FC2
:100AC0008E0F9F1FFC01E15FFD4F808161E08F73FE
:100AD0000E949301FF91EF91BF91AF919F918F91F0
:100AE0007F916F915F914F913F912F910F900FBE2A
:100AF0000F901F9018951F920F920FB60F9211240E
:100B00002F933F934F935F936F937F938F939F9315
:100B1000AF93BF93EF93FF93E0917001F091710158
:100B2000309709F451C0968DA685B785858591FFCC
:100B300004C09C91892329F447C09C91892309F022
:100B400043C0A389B4899C918589809589238C931E
:100B5000868997890197F1F7608D718DA685B78594
:100B6000558538E020E0CB010197F1F7822F90E026
:100B700095958795282F4C91452309F02068315091
:100B800091F7868D81FD209580916F0190E001960F
:100B90008F73992730916E01381749F0A0916F013A
:100BA000B0E0AC5DBE4F2C9380936F0103C0868D87
:100BB0008160868F828D938D0197F1F7A389B48927
:100BC0009C918589892B8C93FF91EF91BF91AF9177
:100BD0009F918F917F916F915F914F913F912F9155
:100BE0000F900FBE0F901F901895109275011092E4
:100BF000740188EE93E0A0E0B0E0809376019093DA
:100C00007701A0937801B093790184E091E090930B
:100C100073018093720185EC90E090937F01809343
:100C20007E0184EC90E0909381018093800180ECC0
:100C300090E0909383018093820181EC90E0909307
:100C400085018093840182EC90E0909387018093EA
:100C5000860186EC90E09093890180938801109240
:100C60008B0110928C0110928D0110928E01809157
:100C700033028C30A0F491E0980F9093330280936C
:100C8000560290E0FC01EE0FFF1F8E0F9F1FFC012C
:100C9000E15FFD4F88EB9BE09283818303C08FEF80
:100CA00080935602809133028C30A0F491E0980F2B
:100CB000909333028093530290E0FC01EE0FFF1FEC
:100CC0008E0F9F1FFC01E15FFD4F88EB9BE092833D
:100CD000818303C08FEF80935302109237021092EA
:100CE000360288EE93E0A0E0B0E080933802909363
:100CF0003902A0933A02B0933B0286E191E09093CF
:100D000035028093340210924B0210924A021092E4
:100D10004D0210924C0210924F0210924E0210920D
:100D2000510210925002609152026E7F6D7F60936B
:100D300052026695617081E068278BE00E94930102
:100D400061E08BE00E94DF01E9EBF0E0E491E093E9
:100D50004402E5EAF0E0E491F0E0EE0FFF1FEA570D
:100D6000FF4F85919491909346028093450260E0F5
:100D70008AE00E94DF018091520281FD04C061E09F
:100D80008AE00E9493018AE080934002E8EBF0E061
:100D9000E491E0934102E4EAF0E0E491F0E0EE0F48
:100DA000FF1FE057FF4F85919491909343028093EA
:100DB00042020895789484B5826084BD84B58160D0
:100DC00084BD85B5826085BD85B5816085BD809116
:100DD0006E00816080936E0010928100809181008E
:100DE0008260809381008091810081608093810086
:100DF000809180008160809380008091B100846048
:100E00008093B1008091B00081608093B0008091A8
:100E10007A00846080937A0080917A008260809367
:100E20007A0080917A00816080937A0080917A00C4
:100E3000806880937A001092C100E0918201F09165
:100E4000830182E08083E0917E01F0917F01108236
:100E5000E0918001F091810180E1808310928A010C
:100E6000E0918601F091870186E08083E091840122
:100E7000F0918501808180618083E0918401F0910F
:100E80008501808188608083E0918401F0918501F3
:100E9000808180688083E0918401F0918501808168
:100EA0008F7D808368E070E086E592E00E94FA0220
:100EB00069E070E083E592E00E94FA0260E570E08C
:100EC00086E592E00E94770262E370E083E592E0BB
:100ED0000E94770210924F0210924E0210924D0221
:100EE00010924C0210924B0210924A028FE190E055
:100EF000909351028093500290914002963108F0F5
:100F000057C021E030E030934B0220934A022DE19C
:100F100030E030934D0220934C022DE030E03093CE
:100F20004F0220934E0220916800983050F031E03B
:100F30009E3008F430E081E001C0880F3A95EAF76E
:100F400001C084E0822B80936800983038F09E3096
:100F500040F0963148F020E030E008C02DE630E067
:100F600005C02BE630E002C02CE630E030934802AA
:100F700020934702983030F481E001C0880F9A95A1
:100F8000EAF70EC0292F30E09E3018F428503109BE
:100F900002C02E50310981E001C0880F2A95EAF77E
:100FA0008093490280915002909151020197F1F78C
:100FB00080914E0290914F02892B21F18091700116
:100FC0009091710122E084339207E1F0009711F0D3
:100FD0000E94FC03809152028E7F809352021092F5
:100FE0006F0110926E0184E392E0909371018093FF
:100FF0007001E0914702F09148029081809149028E
:10100000892B808384EBC82ED12CE12CF12C84E336
:1010100092E00E94C303181619060CF07DC084E309
:1010200092E00E94C30303970CF44DC084E392E066
:101030000E94DB038C0184E392E00E94DB03D82F43
:1010400080E0C82F0C0F1D1FC801885E9340843BB1
:101050009105D8F4C801A0E0B0E09C01AD01285E84
:10106000334041095109A6E5BFEF0E94EF08A701EF
:1010700096010E94C208CA01B9016C547F4F8F4F7C
:101080009F4F86E592E00E947702C801805D9740FD
:10109000843B910508F040C0A80160E070E09A012F
:1010A000AB01205D374041095109A2E8B0E00E9440
:1010B000E108A70196010E94C208B90183E592E008
:1010C0000E94770229C084E392E00E94C303029742
:1010D0001CF584E392E00E94DB038334910519F44C
:1010E00064EB70E005C08434910529F46AE070E097
:1010F00086E592E00DC08134910519F460E070E05E
:1011000005C08234910541F462E870E083E592E025
:101110000E9477020E94400282E791E00E94E9006B
:10112000892B19F182E791E00E94C7008334910571
:1011300019F464EB70E005C08434910529F46AE089
:1011400070E086E592E00DC08134910519F460E00D
:1011500070E005C08234910541F462E870E083E5F7
:1011600092E00E9477020E9440020E9489014FCFC4
:1011700086E191E0909335028093340284E392E01B
:101180000C94FC03052E97FB1EF400940E94D908D2
:1011900057FD07D00E94F40807FC03D04EF40C94CE
:1011A000D90850954095309521953F4F4F4F5F4F4F
:1011B000089590958095709561957F4F8F4F9F4FC3
:1011C00008950E941609A59F900DB49F900DA49FAD
:1011D000800D911D11240895B7FF0C94E1080E9421
:1011E000E108821B930B0895A1E21A2EAA1BBB1BD8
:1011F000FD010DC0AA1FBB1FEE1FFF1FA217B307E3
:10120000E407F50720F0A21BB30BE40BF50B661FF8
:10121000771F881F991F1A9469F7609570958095BC
:1012200090959B01AC01BD01CF010895A29FB00133
:10123000B39FC001A39F700D811D1124911DB29F0A
:10124000700D811D1124911D0895991B79E004C032
:10125000991F961708F0961B881F7A95C9F78095F5
:10126000089597FB072E16F4009407D077FD09D058
:101270000E94450907FC05D03EF4909581959F4F4B
:101280000895709561957F4F0895AA1BBB1B51E18E
:1012900007C0AA1FBB1FA617B70710F0A61BB70BE6
:1012A000881F991F5A95A9F780959095BC01CD018B
:1012B0000895EE0FFF1F0590F491E02D099481E051
:1012C00090E0F8940C94640910E0C2E6D0E004C009
:1012D000FE010E9459092196C336D107C9F7F89437
:0212E000FFCF3E
:1012E2000000000020018D00B8006701E900C7007E
:1012F200DB00000000006F038D0013046E03C303C4
:04130200DB035603B0
:00000001FF
